{
  "contractName": "FakeCoin",
  "abi": [
    {
      "constant": true,
      "inputs": [
        {
          "name": "",
          "type": "address"
        }
      ],
      "name": "balanceOf",
      "outputs": [
        {
          "name": "",
          "type": "uint256"
        }
      ],
      "payable": false,
      "stateMutability": "view",
      "type": "function"
    },
    {
      "payable": true,
      "stateMutability": "payable",
      "type": "fallback"
    },
    {
      "anonymous": false,
      "inputs": [
        {
          "indexed": true,
          "name": "from",
          "type": "address"
        },
        {
          "indexed": true,
          "name": "to",
          "type": "address"
        },
        {
          "indexed": false,
          "name": "value",
          "type": "uint256"
        }
      ],
      "name": "Transfer",
      "type": "event"
    },
    {
      "constant": false,
      "inputs": [
        {
          "name": "_to",
          "type": "address"
        },
        {
          "name": "_value",
          "type": "uint256"
        }
      ],
      "name": "mint",
      "outputs": [],
      "payable": false,
      "stateMutability": "nonpayable",
      "type": "function"
    },
    {
      "constant": true,
      "inputs": [],
      "name": "totalSupply",
      "outputs": [
        {
          "name": "",
          "type": "uint256"
        }
      ],
      "payable": false,
      "stateMutability": "pure",
      "type": "function"
    },
    {
      "constant": true,
      "inputs": [],
      "name": "symbol",
      "outputs": [
        {
          "name": "",
          "type": "string"
        }
      ],
      "payable": false,
      "stateMutability": "pure",
      "type": "function"
    },
    {
      "constant": true,
      "inputs": [],
      "name": "decimals",
      "outputs": [
        {
          "name": "",
          "type": "uint256"
        }
      ],
      "payable": false,
      "stateMutability": "pure",
      "type": "function"
    },
    {
      "constant": false,
      "inputs": [
        {
          "name": "_to",
          "type": "address"
        },
        {
          "name": "_value",
          "type": "uint256"
        }
      ],
      "name": "transfer",
      "outputs": [
        {
          "name": "",
          "type": "bool"
        }
      ],
      "payable": false,
      "stateMutability": "nonpayable",
      "type": "function"
    },
    {
      "constant": false,
      "inputs": [
        {
          "name": "_from",
          "type": "address"
        },
        {
          "name": "_to",
          "type": "address"
        },
        {
          "name": "_value",
          "type": "uint256"
        }
      ],
      "name": "transferFrom",
      "outputs": [
        {
          "name": "",
          "type": "bool"
        }
      ],
      "payable": false,
      "stateMutability": "nonpayable",
      "type": "function"
    },
    {
      "constant": true,
      "inputs": [
        {
          "name": "_address",
          "type": "address"
        }
      ],
      "name": "balanceEth",
      "outputs": [
        {
          "name": "",
          "type": "uint256"
        }
      ],
      "payable": false,
      "stateMutability": "view",
      "type": "function"
    }
  ],
  "bytecode": "0x608060405234801561001057600080fd5b506106ce806100206000396000f30060806040526004361061008d576000357c0100000000000000000000000000000000000000000000000000000000900463ffffffff168062837b151461012c57806318160ddd1461018357806323b872dd146101ae578063313ce5671461023357806340c10f191461025e57806370a08231146102ab57806395d89b4114610302578063a9059cbb14610392575b600034141561012a576040517f08c379a00000000000000000000000000000000000000000000000000000000081526004018080602001828103825260238152602001807f464f5242494444454e5f46414c4c4241434b5f43414c4c5f574954484f55545f81526020017f455448000000000000000000000000000000000000000000000000000000000081525060400191505060405180910390fd5b005b34801561013857600080fd5b5061016d600480360381019080803573ffffffffffffffffffffffffffffffffffffffff1690602001909291905050506103f7565b6040518082815260200191505060405180910390f35b34801561018f57600080fd5b50610198610418565b6040518082815260200191505060405180910390f35b3480156101ba57600080fd5b50610219600480360381019080803573ffffffffffffffffffffffffffffffffffffffff169060200190929190803573ffffffffffffffffffffffffffffffffffffffff16906020019092919080359060200190929190505050610420565b604051808215151515815260200191505060405180910390f35b34801561023f57600080fd5b5061024861057a565b6040518082815260200191505060405180910390f35b34801561026a57600080fd5b506102a9600480360381019080803573ffffffffffffffffffffffffffffffffffffffff16906020019092919080359060200190929190505050610583565b005b3480156102b757600080fd5b506102ec600480360381019080803573ffffffffffffffffffffffffffffffffffffffff169060200190929190505050610638565b6040518082815260200191505060405180910390f35b34801561030e57600080fd5b50610317610650565b6040518080602001828103825283818151815260200191508051906020019080838360005b8381101561035757808201518184015260208101905061033c565b50505050905090810190601f1680156103845780820380516001836020036101000a031916815260200191505b509250505060405180910390f35b34801561039e57600080fd5b506103dd600480360381019080803573ffffffffffffffffffffffffffffffffffffffff1690602001909291908035906020019092919050505061068d565b604051808215151515815260200191505060405180910390f35b60008173ffffffffffffffffffffffffffffffffffffffff16319050919050565b600080905090565b6000816000808673ffffffffffffffffffffffffffffffffffffffff1673ffffffffffffffffffffffffffffffffffffffff1681526020019081526020016000205410156104715760009050610573565b816000808673ffffffffffffffffffffffffffffffffffffffff1673ffffffffffffffffffffffffffffffffffffffff16815260200190815260200160002060008282540392505081905550816000808573ffffffffffffffffffffffffffffffffffffffff1673ffffffffffffffffffffffffffffffffffffffff168152602001908152602001600020600082825401925050819055508273ffffffffffffffffffffffffffffffffffffffff168473ffffffffffffffffffffffffffffffffffffffff167fddf252ad1be2c89b69c2b068fc378daa952ba7f163c4a11628f55a4df523b3ef846040518082815260200191505060405180910390a3600190505b9392505050565b60006004905090565b806000808473ffffffffffffffffffffffffffffffffffffffff1673ffffffffffffffffffffffffffffffffffffffff168152602001908152602001600020600082825401925050819055508173ffffffffffffffffffffffffffffffffffffffff163073ffffffffffffffffffffffffffffffffffffffff167fddf252ad1be2c89b69c2b068fc378daa952ba7f163c4a11628f55a4df523b3ef836040518082815260200191505060405180910390a35050565b60006020528060005260406000206000915090505481565b60606040805190810160405280600481526020017f46414b4500000000000000000000000000000000000000000000000000000000815250905090565b600061069a338484610420565b9050929150505600a165627a7a72305820a8b16f6ca2bf7f4213239a2c858fa111f18e6e0eea655cac4bd78305cd507f8e0029",
  "source": "pragma solidity ^0.4.24;\n\n// For testing purposes\ncontract FakeCoin {\n\n    event Transfer(address indexed from, address indexed to, uint256 value);\n\n    mapping (address => uint) public balanceOf;\n\n    function mint(address _to, uint _value) public {\n        balanceOf[_to] += _value;\n        emit Transfer(this, _to, _value);\n    }\n\n    function totalSupply() public pure returns (uint) {\n        return 0;\n    }\n\n    function symbol() public pure returns (string) {\n        return \"FAKE\";\n    }\n\n    function decimals() public pure returns (uint) {\n        return 4;\n    }\n\n    function transfer(address _to, uint _value) public returns (bool) {\n        return transferFrom(msg.sender, _to, _value);\n    }\n\n    function transferFrom(address _from, address _to, uint _value) public returns (bool) {\n        if (balanceOf[_from] < _value) {\n            return false;\n        }\n        balanceOf[_from] -= _value;\n        balanceOf[_to] += _value;\n        emit Transfer(_from, _to, _value);\n        return true;\n    }\n\n    function balanceEth(address _address) public view returns (uint) {\n        return _address.balance;\n    }\n\n    function() public payable {\n        if (msg.value == 0) {\n            revert(\"FORBIDDEN_FALLBACK_CALL_WITHOUT_ETH\");\n        }\n    }\n}\n",
  "sourcePath": "/Users/alesanro/Documents/Projects/experiments/ts-truffle-playground/contracts/FakeCoin.sol",
  "compiler": {
    "name": "solc",
    "version": "0.4.24+commit.e67f0147.Emscripten.clang"
  },
  "schemaVersion": "2.0.1",
  "updatedAt": "2018-08-20T08:31:03.528Z"
}